{"contracts/TwoPartySwap.sol":{"TwoPartySwap":{"abi":[{"anonymous":false,"inputs":[{"indexed":false,"internalType":"address","name":"messageSender","type":"address"},{"indexed":false,"internalType":"uint256","name":"amount","type":"uint256"},{"indexed":false,"internalType":"address","name":"transferFrom","type":"address"},{"indexed":false,"internalType":"address","name":"transferTo","type":"address"},{"indexed":false,"internalType":"uint256","name":"currentPremium","type":"uint256"},{"indexed":false,"internalType":"uint256","name":"currentAsset","type":"uint256"}],"name":"AssetEscrowed","type":"event"},{"anonymous":false,"inputs":[{"indexed":false,"internalType":"address","name":"messageSender","type":"address"},{"indexed":false,"internalType":"uint256","name":"amount","type":"uint256"},{"indexed":false,"internalType":"address","name":"transferFrom","type":"address"},{"indexed":false,"internalType":"address","name":"transferTo","type":"address"},{"indexed":false,"internalType":"uint256","name":"currentPremium","type":"uint256"},{"indexed":false,"internalType":"uint256","name":"currentAsset","type":"uint256"}],"name":"AssetRedeemed","type":"event"},{"anonymous":false,"inputs":[{"indexed":false,"internalType":"address","name":"messageSender","type":"address"},{"indexed":false,"internalType":"uint256","name":"amount","type":"uint256"},{"indexed":false,"internalType":"address","name":"transferFrom","type":"address"},{"indexed":false,"internalType":"address","name":"transferTo","type":"address"},{"indexed":false,"internalType":"uint256","name":"currentPremium","type":"uint256"},{"indexed":false,"internalType":"uint256","name":"currentAsset","type":"uint256"}],"name":"AssetRefunded","type":"event"},{"anonymous":false,"inputs":[{"indexed":false,"internalType":"address","name":"messageSender","type":"address"},{"indexed":false,"internalType":"uint256","name":"amount","type":"uint256"},{"indexed":false,"internalType":"address","name":"transferFrom","type":"address"},{"indexed":false,"internalType":"address","name":"transferTo","type":"address"},{"indexed":false,"internalType":"uint256","name":"currentPremium","type":"uint256"},{"indexed":false,"internalType":"uint256","name":"currentAsset","type":"uint256"}],"name":"PremiumEscrowed","type":"event"},{"anonymous":false,"inputs":[{"indexed":false,"internalType":"address","name":"messageSender","type":"address"},{"indexed":false,"internalType":"uint256","name":"amount","type":"uint256"},{"indexed":false,"internalType":"address","name":"transferFrom","type":"address"},{"indexed":false,"internalType":"address","name":"transferTo","type":"address"},{"indexed":false,"internalType":"uint256","name":"currentPremium","type":"uint256"},{"indexed":false,"internalType":"uint256","name":"currentAsset","type":"uint256"}],"name":"PremiumRedeemed","type":"event"},{"anonymous":false,"inputs":[{"indexed":false,"internalType":"address","name":"messageSender","type":"address"},{"indexed":false,"internalType":"uint256","name":"amount","type":"uint256"},{"indexed":false,"internalType":"address","name":"transferFrom","type":"address"},{"indexed":false,"internalType":"address","name":"transferTo","type":"address"},{"indexed":false,"internalType":"uint256","name":"currentPremium","type":"uint256"},{"indexed":false,"internalType":"uint256","name":"currentAsset","type":"uint256"}],"name":"PremiumRefunded","type":"event"},{"anonymous":false,"inputs":[{"indexed":false,"internalType":"address payable","name":"assetEscrower","type":"address"},{"indexed":false,"internalType":"address payable","name":"premiumEscrower","type":"address"},{"indexed":false,"internalType":"uint256","name":"expectedPremium","type":"uint256"},{"indexed":false,"internalType":"uint256","name":"expectedAsset","type":"uint256"},{"indexed":false,"internalType":"uint256","name":"startTime","type":"uint256"},{"indexed":false,"internalType":"uint256","name":"premiumDeadline","type":"uint256"},{"indexed":false,"internalType":"uint256","name":"assetDeadline","type":"uint256"},{"indexed":false,"internalType":"uint256","name":"assetTimeout","type":"uint256"}],"name":"SetUp","type":"event"},{"inputs":[{"internalType":"bytes32","name":"","type":"bytes32"}],"name":"assets","outputs":[{"internalType":"uint256","name":"expected","type":"uint256"},{"internalType":"uint256","name":"current","type":"uint256"},{"internalType":"uint256","name":"deadline","type":"uint256"},{"internalType":"uint256","name":"timeout","type":"uint256"}],"stateMutability":"view","type":"function"},{"inputs":[{"internalType":"bytes32","name":"hashLock","type":"bytes32"}],"name":"escrowAsset","outputs":[],"stateMutability":"payable","type":"function"},{"inputs":[{"internalType":"bytes32","name":"hashLock","type":"bytes32"}],"name":"escrowPremium","outputs":[],"stateMutability":"payable","type":"function"},{"inputs":[{"internalType":"bytes32","name":"","type":"bytes32"}],"name":"premiums","outputs":[{"internalType":"uint256","name":"expected","type":"uint256"},{"internalType":"uint256","name":"current","type":"uint256"},{"internalType":"uint256","name":"deadline","type":"uint256"}],"stateMutability":"view","type":"function"},{"inputs":[{"internalType":"bytes32","name":"preimage","type":"bytes32"},{"internalType":"bytes32","name":"hashLock","type":"bytes32"}],"name":"redeemAsset","outputs":[],"stateMutability":"nonpayable","type":"function"},{"inputs":[{"internalType":"bytes32","name":"hashLock","type":"bytes32"}],"name":"redeemPremium","outputs":[],"stateMutability":"nonpayable","type":"function"},{"inputs":[{"internalType":"bytes32","name":"hashLock","type":"bytes32"}],"name":"refundAsset","outputs":[],"stateMutability":"nonpayable","type":"function"},{"inputs":[{"internalType":"bytes32","name":"hashLock","type":"bytes32"}],"name":"refundPremium","outputs":[],"stateMutability":"nonpayable","type":"function"},{"inputs":[{"internalType":"uint256","name":"expectedAssetEscrow","type":"uint256"},{"internalType":"uint256","name":"expectedPremiumEscrow","type":"uint256"},{"internalType":"address payable","name":"assetEscrower","type":"address"},{"internalType":"address payable","name":"premiumEscrower","type":"address"},{"internalType":"address","name":"assetAddress","type":"address"},{"internalType":"bytes32","name":"hashLock","type":"bytes32"},{"internalType":"uint256","name":"startTime","type":"uint256"},{"internalType":"bool","name":"firstAssetEscrow","type":"bool"},{"internalType":"uint256","name":"delta","type":"uint256"}],"name":"setup","outputs":[],"stateMutability":"payable","type":"function"},{"inputs":[{"internalType":"bytes32","name":"","type":"bytes32"}],"name":"swaps","outputs":[{"internalType":"address payable","name":"assetEscrower","type":"address"},{"internalType":"address payable","name":"premiumEscrower","type":"address"},{"internalType":"bytes32","name":"hashLock","type":"bytes32"},{"internalType":"address","name":"assetAddress","type":"address"}],"stateMutability":"view","type":"function"}],"evm":{"bytecode":{"linkReferences":{},"object":"608060405234801561001057600080fd5b506106f3806100206000396000f3fe6080604052600436106100915760003560e01c8063b55587a911610059578063b55587a914610183578063d133adb1146101ac578063d72a0a53146101c8578063e8d8c29b146101f1578063eb84e7f21461020d57610091565b80635385c9141461009657806378a3113e146100bf5780638f1c087c146100fe5780639fda5b6614610127578063aeaf7cc714610167575b600080fd5b3480156100a257600080fd5b506100bd60048036038101906100b891906103be565b61024d565b005b3480156100cb57600080fd5b506100e660048036038101906100e191906103be565b610250565b6040516100f59392919061056a565b60405180910390f35b34801561010a57600080fd5b50610125600480360381019061012091906103be565b61027a565b005b34801561013357600080fd5b5061014e600480360381019061014991906103be565b61027d565b60405161015e94939291906105a1565b60405180910390f35b610181600480360381019061017c91906103be565b6102ad565b005b34801561018f57600080fd5b506101aa60048036038101906101a591906103be565b6102b0565b005b6101c660048036038101906101c19190610423565b6102b3565b005b3480156101d457600080fd5b506101ef60048036038101906101ea91906103e7565b6102be565b005b61020b600480360381019061020691906103be565b6102c2565b005b34801561021957600080fd5b50610234600480360381019061022f91906103be565b6102c5565b6040516102449493929190610525565b60405180910390f35b50565b60026020528060005260406000206000915090508060000154908060010154908060020154905083565b50565b60016020528060005260406000206000915090508060000154908060010154908060020154908060030154905084565b50565b50565b505050505050505050565b5050565b50565b60006020528060005260406000206000915090508060000160009054906101000a900473ffffffffffffffffffffffffffffffffffffffff16908060010160009054906101000a900473ffffffffffffffffffffffffffffffffffffffff16908060020154908060030160009054906101000a900473ffffffffffffffffffffffffffffffffffffffff16905084565b6000813590506103648161064a565b92915050565b60008135905061037981610661565b92915050565b60008135905061038e81610678565b92915050565b6000813590506103a38161068f565b92915050565b6000813590506103b8816106a6565b92915050565b6000602082840312156103d057600080fd5b60006103de84828501610394565b91505092915050565b600080604083850312156103fa57600080fd5b600061040885828601610394565b925050602061041985828601610394565b9150509250929050565b60008060008060008060008060006101208a8c03121561044257600080fd5b60006104508c828d016103a9565b99505060206104618c828d016103a9565b98505060406104728c828d0161036a565b97505060606104838c828d0161036a565b96505060806104948c828d01610355565b95505060a06104a58c828d01610394565b94505060c06104b68c828d016103a9565b93505060e06104c78c828d0161037f565b9250506101006104d98c828d016103a9565b9150509295985092959850929598565b6104f2816105f8565b82525050565b610501816105e6565b82525050565b61051081610616565b82525050565b61051f81610640565b82525050565b600060808201905061053a60008301876104e9565b61054760208301866104e9565b6105546040830185610507565b61056160608301846104f8565b95945050505050565b600060608201905061057f6000830186610516565b61058c6020830185610516565b6105996040830184610516565b949350505050565b60006080820190506105b66000830187610516565b6105c36020830186610516565b6105d06040830185610516565b6105dd6060830184610516565b95945050505050565b60006105f182610620565b9050919050565b600061060382610620565b9050919050565b60008115159050919050565b6000819050919050565b600073ffffffffffffffffffffffffffffffffffffffff82169050919050565b6000819050919050565b610653816105e6565b811461065e57600080fd5b50565b61066a816105f8565b811461067557600080fd5b50565b6106818161060a565b811461068c57600080fd5b50565b61069881610616565b81146106a357600080fd5b50565b6106af81610640565b81146106ba57600080fd5b5056fea26469706673582212203974b976c342c2909883f88c16d94b36147eb690a2188125aa6326ff26c1f47b64736f6c63430008040033","opcodes":"PUSH1 0x80 PUSH1 0x40 MSTORE CALLVALUE DUP1 ISZERO PUSH2 0x10 JUMPI PUSH1 0x0 DUP1 REVERT JUMPDEST POP PUSH2 0x6F3 DUP1 PUSH2 0x20 PUSH1 0x0 CODECOPY PUSH1 0x0 RETURN INVALID PUSH1 0x80 PUSH1 0x40 MSTORE PUSH1 0x4 CALLDATASIZE LT PUSH2 0x91 JUMPI PUSH1 0x0 CALLDATALOAD PUSH1 0xE0 SHR DUP1 PUSH4 0xB55587A9 GT PUSH2 0x59 JUMPI DUP1 PUSH4 0xB55587A9 EQ PUSH2 0x183 JUMPI DUP1 PUSH4 0xD133ADB1 EQ PUSH2 0x1AC JUMPI DUP1 PUSH4 0xD72A0A53 EQ PUSH2 0x1C8 JUMPI DUP1 PUSH4 0xE8D8C29B EQ PUSH2 0x1F1 JUMPI DUP1 PUSH4 0xEB84E7F2 EQ PUSH2 0x20D JUMPI PUSH2 0x91 JUMP JUMPDEST DUP1 PUSH4 0x5385C914 EQ PUSH2 0x96 JUMPI DUP1 PUSH4 0x78A3113E EQ PUSH2 0xBF JUMPI DUP1 PUSH4 0x8F1C087C EQ PUSH2 0xFE JUMPI DUP1 PUSH4 0x9FDA5B66 EQ PUSH2 0x127 JUMPI DUP1 PUSH4 0xAEAF7CC7 EQ PUSH2 0x167 JUMPI JUMPDEST PUSH1 0x0 DUP1 REVERT JUMPDEST CALLVALUE DUP1 ISZERO PUSH2 0xA2 JUMPI PUSH1 0x0 DUP1 REVERT JUMPDEST POP PUSH2 0xBD PUSH1 0x4 DUP1 CALLDATASIZE SUB DUP2 ADD SWAP1 PUSH2 0xB8 SWAP2 SWAP1 PUSH2 0x3BE JUMP JUMPDEST PUSH2 0x24D JUMP JUMPDEST STOP JUMPDEST CALLVALUE DUP1 ISZERO PUSH2 0xCB JUMPI PUSH1 0x0 DUP1 REVERT JUMPDEST POP PUSH2 0xE6 PUSH1 0x4 DUP1 CALLDATASIZE SUB DUP2 ADD SWAP1 PUSH2 0xE1 SWAP2 SWAP1 PUSH2 0x3BE JUMP JUMPDEST PUSH2 0x250 JUMP JUMPDEST PUSH1 0x40 MLOAD PUSH2 0xF5 SWAP4 SWAP3 SWAP2 SWAP1 PUSH2 0x56A JUMP JUMPDEST PUSH1 0x40 MLOAD DUP1 SWAP2 SUB SWAP1 RETURN JUMPDEST CALLVALUE DUP1 ISZERO PUSH2 0x10A JUMPI PUSH1 0x0 DUP1 REVERT JUMPDEST POP PUSH2 0x125 PUSH1 0x4 DUP1 CALLDATASIZE SUB DUP2 ADD SWAP1 PUSH2 0x120 SWAP2 SWAP1 PUSH2 0x3BE JUMP JUMPDEST PUSH2 0x27A JUMP JUMPDEST STOP JUMPDEST CALLVALUE DUP1 ISZERO PUSH2 0x133 JUMPI PUSH1 0x0 DUP1 REVERT JUMPDEST POP PUSH2 0x14E PUSH1 0x4 DUP1 CALLDATASIZE SUB DUP2 ADD SWAP1 PUSH2 0x149 SWAP2 SWAP1 PUSH2 0x3BE JUMP JUMPDEST PUSH2 0x27D JUMP JUMPDEST PUSH1 0x40 MLOAD PUSH2 0x15E SWAP5 SWAP4 SWAP3 SWAP2 SWAP1 PUSH2 0x5A1 JUMP JUMPDEST PUSH1 0x40 MLOAD DUP1 SWAP2 SUB SWAP1 RETURN JUMPDEST PUSH2 0x181 PUSH1 0x4 DUP1 CALLDATASIZE SUB DUP2 ADD SWAP1 PUSH2 0x17C SWAP2 SWAP1 PUSH2 0x3BE JUMP JUMPDEST PUSH2 0x2AD JUMP JUMPDEST STOP JUMPDEST CALLVALUE DUP1 ISZERO PUSH2 0x18F JUMPI PUSH1 0x0 DUP1 REVERT JUMPDEST POP PUSH2 0x1AA PUSH1 0x4 DUP1 CALLDATASIZE SUB DUP2 ADD SWAP1 PUSH2 0x1A5 SWAP2 SWAP1 PUSH2 0x3BE JUMP JUMPDEST PUSH2 0x2B0 JUMP JUMPDEST STOP JUMPDEST PUSH2 0x1C6 PUSH1 0x4 DUP1 CALLDATASIZE SUB DUP2 ADD SWAP1 PUSH2 0x1C1 SWAP2 SWAP1 PUSH2 0x423 JUMP JUMPDEST PUSH2 0x2B3 JUMP JUMPDEST STOP JUMPDEST CALLVALUE DUP1 ISZERO PUSH2 0x1D4 JUMPI PUSH1 0x0 DUP1 REVERT JUMPDEST POP PUSH2 0x1EF PUSH1 0x4 DUP1 CALLDATASIZE SUB DUP2 ADD SWAP1 PUSH2 0x1EA SWAP2 SWAP1 PUSH2 0x3E7 JUMP JUMPDEST PUSH2 0x2BE JUMP JUMPDEST STOP JUMPDEST PUSH2 0x20B PUSH1 0x4 DUP1 CALLDATASIZE SUB DUP2 ADD SWAP1 PUSH2 0x206 SWAP2 SWAP1 PUSH2 0x3BE JUMP JUMPDEST PUSH2 0x2C2 JUMP JUMPDEST STOP JUMPDEST CALLVALUE DUP1 ISZERO PUSH2 0x219 JUMPI PUSH1 0x0 DUP1 REVERT JUMPDEST POP PUSH2 0x234 PUSH1 0x4 DUP1 CALLDATASIZE SUB DUP2 ADD SWAP1 PUSH2 0x22F SWAP2 SWAP1 PUSH2 0x3BE JUMP JUMPDEST PUSH2 0x2C5 JUMP JUMPDEST PUSH1 0x40 MLOAD PUSH2 0x244 SWAP5 SWAP4 SWAP3 SWAP2 SWAP1 PUSH2 0x525 JUMP JUMPDEST PUSH1 0x40 MLOAD DUP1 SWAP2 SUB SWAP1 RETURN JUMPDEST POP JUMP JUMPDEST PUSH1 0x2 PUSH1 0x20 MSTORE DUP1 PUSH1 0x0 MSTORE PUSH1 0x40 PUSH1 0x0 KECCAK256 PUSH1 0x0 SWAP2 POP SWAP1 POP DUP1 PUSH1 0x0 ADD SLOAD SWAP1 DUP1 PUSH1 0x1 ADD SLOAD SWAP1 DUP1 PUSH1 0x2 ADD SLOAD SWAP1 POP DUP4 JUMP JUMPDEST POP JUMP JUMPDEST PUSH1 0x1 PUSH1 0x20 MSTORE DUP1 PUSH1 0x0 MSTORE PUSH1 0x40 PUSH1 0x0 KECCAK256 PUSH1 0x0 SWAP2 POP SWAP1 POP DUP1 PUSH1 0x0 ADD SLOAD SWAP1 DUP1 PUSH1 0x1 ADD SLOAD SWAP1 DUP1 PUSH1 0x2 ADD SLOAD SWAP1 DUP1 PUSH1 0x3 ADD SLOAD SWAP1 POP DUP5 JUMP JUMPDEST POP JUMP JUMPDEST POP JUMP JUMPDEST POP POP POP POP POP POP POP POP POP JUMP JUMPDEST POP POP JUMP JUMPDEST POP JUMP JUMPDEST PUSH1 0x0 PUSH1 0x20 MSTORE DUP1 PUSH1 0x0 MSTORE PUSH1 0x40 PUSH1 0x0 KECCAK256 PUSH1 0x0 SWAP2 POP SWAP1 POP DUP1 PUSH1 0x0 ADD PUSH1 0x0 SWAP1 SLOAD SWAP1 PUSH2 0x100 EXP SWAP1 DIV PUSH20 0xFFFFFFFFFFFFFFFFFFFFFFFFFFFFFFFFFFFFFFFF AND SWAP1 DUP1 PUSH1 0x1 ADD PUSH1 0x0 SWAP1 SLOAD SWAP1 PUSH2 0x100 EXP SWAP1 DIV PUSH20 0xFFFFFFFFFFFFFFFFFFFFFFFFFFFFFFFFFFFFFFFF AND SWAP1 DUP1 PUSH1 0x2 ADD SLOAD SWAP1 DUP1 PUSH1 0x3 ADD PUSH1 0x0 SWAP1 SLOAD SWAP1 PUSH2 0x100 EXP SWAP1 DIV PUSH20 0xFFFFFFFFFFFFFFFFFFFFFFFFFFFFFFFFFFFFFFFF AND SWAP1 POP DUP5 JUMP JUMPDEST PUSH1 0x0 DUP2 CALLDATALOAD SWAP1 POP PUSH2 0x364 DUP2 PUSH2 0x64A JUMP JUMPDEST SWAP3 SWAP2 POP POP JUMP JUMPDEST PUSH1 0x0 DUP2 CALLDATALOAD SWAP1 POP PUSH2 0x379 DUP2 PUSH2 0x661 JUMP JUMPDEST SWAP3 SWAP2 POP POP JUMP JUMPDEST PUSH1 0x0 DUP2 CALLDATALOAD SWAP1 POP PUSH2 0x38E DUP2 PUSH2 0x678 JUMP JUMPDEST SWAP3 SWAP2 POP POP JUMP JUMPDEST PUSH1 0x0 DUP2 CALLDATALOAD SWAP1 POP PUSH2 0x3A3 DUP2 PUSH2 0x68F JUMP JUMPDEST SWAP3 SWAP2 POP POP JUMP JUMPDEST PUSH1 0x0 DUP2 CALLDATALOAD SWAP1 POP PUSH2 0x3B8 DUP2 PUSH2 0x6A6 JUMP JUMPDEST SWAP3 SWAP2 POP POP JUMP JUMPDEST PUSH1 0x0 PUSH1 0x20 DUP3 DUP5 SUB SLT ISZERO PUSH2 0x3D0 JUMPI PUSH1 0x0 DUP1 REVERT JUMPDEST PUSH1 0x0 PUSH2 0x3DE DUP5 DUP3 DUP6 ADD PUSH2 0x394 JUMP JUMPDEST SWAP2 POP POP SWAP3 SWAP2 POP POP JUMP JUMPDEST PUSH1 0x0 DUP1 PUSH1 0x40 DUP4 DUP6 SUB SLT ISZERO PUSH2 0x3FA JUMPI PUSH1 0x0 DUP1 REVERT JUMPDEST PUSH1 0x0 PUSH2 0x408 DUP6 DUP3 DUP7 ADD PUSH2 0x394 JUMP JUMPDEST SWAP3 POP POP PUSH1 0x20 PUSH2 0x419 DUP6 DUP3 DUP7 ADD PUSH2 0x394 JUMP JUMPDEST SWAP2 POP POP SWAP3 POP SWAP3 SWAP1 POP JUMP JUMPDEST PUSH1 0x0 DUP1 PUSH1 0x0 DUP1 PUSH1 0x0 DUP1 PUSH1 0x0 DUP1 PUSH1 0x0 PUSH2 0x120 DUP11 DUP13 SUB SLT ISZERO PUSH2 0x442 JUMPI PUSH1 0x0 DUP1 REVERT JUMPDEST PUSH1 0x0 PUSH2 0x450 DUP13 DUP3 DUP14 ADD PUSH2 0x3A9 JUMP JUMPDEST SWAP10 POP POP PUSH1 0x20 PUSH2 0x461 DUP13 DUP3 DUP14 ADD PUSH2 0x3A9 JUMP JUMPDEST SWAP9 POP POP PUSH1 0x40 PUSH2 0x472 DUP13 DUP3 DUP14 ADD PUSH2 0x36A JUMP JUMPDEST SWAP8 POP POP PUSH1 0x60 PUSH2 0x483 DUP13 DUP3 DUP14 ADD PUSH2 0x36A JUMP JUMPDEST SWAP7 POP POP PUSH1 0x80 PUSH2 0x494 DUP13 DUP3 DUP14 ADD PUSH2 0x355 JUMP JUMPDEST SWAP6 POP POP PUSH1 0xA0 PUSH2 0x4A5 DUP13 DUP3 DUP14 ADD PUSH2 0x394 JUMP JUMPDEST SWAP5 POP POP PUSH1 0xC0 PUSH2 0x4B6 DUP13 DUP3 DUP14 ADD PUSH2 0x3A9 JUMP JUMPDEST SWAP4 POP POP PUSH1 0xE0 PUSH2 0x4C7 DUP13 DUP3 DUP14 ADD PUSH2 0x37F JUMP JUMPDEST SWAP3 POP POP PUSH2 0x100 PUSH2 0x4D9 DUP13 DUP3 DUP14 ADD PUSH2 0x3A9 JUMP JUMPDEST SWAP2 POP POP SWAP3 SWAP6 SWAP9 POP SWAP3 SWAP6 SWAP9 POP SWAP3 SWAP6 SWAP9 JUMP JUMPDEST PUSH2 0x4F2 DUP2 PUSH2 0x5F8 JUMP JUMPDEST DUP3 MSTORE POP POP JUMP JUMPDEST PUSH2 0x501 DUP2 PUSH2 0x5E6 JUMP JUMPDEST DUP3 MSTORE POP POP JUMP JUMPDEST PUSH2 0x510 DUP2 PUSH2 0x616 JUMP JUMPDEST DUP3 MSTORE POP POP JUMP JUMPDEST PUSH2 0x51F DUP2 PUSH2 0x640 JUMP JUMPDEST DUP3 MSTORE POP POP JUMP JUMPDEST PUSH1 0x0 PUSH1 0x80 DUP3 ADD SWAP1 POP PUSH2 0x53A PUSH1 0x0 DUP4 ADD DUP8 PUSH2 0x4E9 JUMP JUMPDEST PUSH2 0x547 PUSH1 0x20 DUP4 ADD DUP7 PUSH2 0x4E9 JUMP JUMPDEST PUSH2 0x554 PUSH1 0x40 DUP4 ADD DUP6 PUSH2 0x507 JUMP JUMPDEST PUSH2 0x561 PUSH1 0x60 DUP4 ADD DUP5 PUSH2 0x4F8 JUMP JUMPDEST SWAP6 SWAP5 POP POP POP POP POP JUMP JUMPDEST PUSH1 0x0 PUSH1 0x60 DUP3 ADD SWAP1 POP PUSH2 0x57F PUSH1 0x0 DUP4 ADD DUP7 PUSH2 0x516 JUMP JUMPDEST PUSH2 0x58C PUSH1 0x20 DUP4 ADD DUP6 PUSH2 0x516 JUMP JUMPDEST PUSH2 0x599 PUSH1 0x40 DUP4 ADD DUP5 PUSH2 0x516 JUMP JUMPDEST SWAP5 SWAP4 POP POP POP POP JUMP JUMPDEST PUSH1 0x0 PUSH1 0x80 DUP3 ADD SWAP1 POP PUSH2 0x5B6 PUSH1 0x0 DUP4 ADD DUP8 PUSH2 0x516 JUMP JUMPDEST PUSH2 0x5C3 PUSH1 0x20 DUP4 ADD DUP7 PUSH2 0x516 JUMP JUMPDEST PUSH2 0x5D0 PUSH1 0x40 DUP4 ADD DUP6 PUSH2 0x516 JUMP JUMPDEST PUSH2 0x5DD PUSH1 0x60 DUP4 ADD DUP5 PUSH2 0x516 JUMP JUMPDEST SWAP6 SWAP5 POP POP POP POP POP JUMP JUMPDEST PUSH1 0x0 PUSH2 0x5F1 DUP3 PUSH2 0x620 JUMP JUMPDEST SWAP1 POP SWAP2 SWAP1 POP JUMP JUMPDEST PUSH1 0x0 PUSH2 0x603 DUP3 PUSH2 0x620 JUMP JUMPDEST SWAP1 POP SWAP2 SWAP1 POP JUMP JUMPDEST PUSH1 0x0 DUP2 ISZERO ISZERO SWAP1 POP SWAP2 SWAP1 POP JUMP JUMPDEST PUSH1 0x0 DUP2 SWAP1 POP SWAP2 SWAP1 POP JUMP JUMPDEST PUSH1 0x0 PUSH20 0xFFFFFFFFFFFFFFFFFFFFFFFFFFFFFFFFFFFFFFFF DUP3 AND SWAP1 POP SWAP2 SWAP1 POP JUMP JUMPDEST PUSH1 0x0 DUP2 SWAP1 POP SWAP2 SWAP1 POP JUMP JUMPDEST PUSH2 0x653 DUP2 PUSH2 0x5E6 JUMP JUMPDEST DUP2 EQ PUSH2 0x65E JUMPI PUSH1 0x0 DUP1 REVERT JUMPDEST POP JUMP JUMPDEST PUSH2 0x66A DUP2 PUSH2 0x5F8 JUMP JUMPDEST DUP2 EQ PUSH2 0x675 JUMPI PUSH1 0x0 DUP1 REVERT JUMPDEST POP JUMP JUMPDEST PUSH2 0x681 DUP2 PUSH2 0x60A JUMP JUMPDEST DUP2 EQ PUSH2 0x68C JUMPI PUSH1 0x0 DUP1 REVERT JUMPDEST POP JUMP JUMPDEST PUSH2 0x698 DUP2 PUSH2 0x616 JUMP JUMPDEST DUP2 EQ PUSH2 0x6A3 JUMPI PUSH1 0x0 DUP1 REVERT JUMPDEST POP JUMP JUMPDEST PUSH2 0x6AF DUP2 PUSH2 0x640 JUMP JUMPDEST DUP2 EQ PUSH2 0x6BA JUMPI PUSH1 0x0 DUP1 REVERT JUMPDEST POP JUMP INVALID LOG2 PUSH5 0x6970667358 0x22 SLT KECCAK256 CODECOPY PUSH21 0xB976C342C2909883F88C16D94B36147EB690A21881 0x25 0xAA PUSH4 0x26FF26C1 DELEGATECALL PUSH28 0x64736F6C634300080400330000000000000000000000000000000000 "},"methodIdentifiers":{"assets(bytes32)":"9fda5b66","escrowAsset(bytes32)":"e8d8c29b","escrowPremium(bytes32)":"aeaf7cc7","premiums(bytes32)":"78a3113e","redeemAsset(bytes32,bytes32)":"d72a0a53","redeemPremium(bytes32)":"b55587a9","refundAsset(bytes32)":"5385c914","refundPremium(bytes32)":"8f1c087c","setup(uint256,uint256,address,address,address,bytes32,uint256,bool,uint256)":"d133adb1","swaps(bytes32)":"eb84e7f2"}}}}}