{
  "_format": "hh-sol-artifact-1",
  "contractName": "TwoPartySwap",
  "sourceName": "contracts/TwoPartySwap.sol",
  "abi": [
    {
      "anonymous": false,
      "inputs": [
        {
          "indexed": false,
          "internalType": "address",
          "name": "messageSender",
          "type": "address"
        },
        {
          "indexed": false,
          "internalType": "uint256",
          "name": "amount",
          "type": "uint256"
        },
        {
          "indexed": false,
          "internalType": "address",
          "name": "transferFrom",
          "type": "address"
        },
        {
          "indexed": false,
          "internalType": "address",
          "name": "transferTo",
          "type": "address"
        },
        {
          "indexed": false,
          "internalType": "uint256",
          "name": "currentPremium",
          "type": "uint256"
        },
        {
          "indexed": false,
          "internalType": "uint256",
          "name": "currentAsset",
          "type": "uint256"
        }
      ],
      "name": "AssetEscrowed",
      "type": "event"
    },
    {
      "anonymous": false,
      "inputs": [
        {
          "indexed": false,
          "internalType": "address",
          "name": "messageSender",
          "type": "address"
        },
        {
          "indexed": false,
          "internalType": "uint256",
          "name": "amount",
          "type": "uint256"
        },
        {
          "indexed": false,
          "internalType": "address",
          "name": "transferFrom",
          "type": "address"
        },
        {
          "indexed": false,
          "internalType": "address",
          "name": "transferTo",
          "type": "address"
        },
        {
          "indexed": false,
          "internalType": "uint256",
          "name": "currentPremium",
          "type": "uint256"
        },
        {
          "indexed": false,
          "internalType": "uint256",
          "name": "currentAsset",
          "type": "uint256"
        }
      ],
      "name": "AssetRedeemed",
      "type": "event"
    },
    {
      "anonymous": false,
      "inputs": [
        {
          "indexed": false,
          "internalType": "address",
          "name": "messageSender",
          "type": "address"
        },
        {
          "indexed": false,
          "internalType": "uint256",
          "name": "amount",
          "type": "uint256"
        },
        {
          "indexed": false,
          "internalType": "address",
          "name": "transferFrom",
          "type": "address"
        },
        {
          "indexed": false,
          "internalType": "address",
          "name": "transferTo",
          "type": "address"
        },
        {
          "indexed": false,
          "internalType": "uint256",
          "name": "currentPremium",
          "type": "uint256"
        },
        {
          "indexed": false,
          "internalType": "uint256",
          "name": "currentAsset",
          "type": "uint256"
        }
      ],
      "name": "AssetRefunded",
      "type": "event"
    },
    {
      "anonymous": false,
      "inputs": [
        {
          "indexed": false,
          "internalType": "address",
          "name": "messageSender",
          "type": "address"
        },
        {
          "indexed": false,
          "internalType": "uint256",
          "name": "amount",
          "type": "uint256"
        },
        {
          "indexed": false,
          "internalType": "address",
          "name": "transferFrom",
          "type": "address"
        },
        {
          "indexed": false,
          "internalType": "address",
          "name": "transferTo",
          "type": "address"
        },
        {
          "indexed": false,
          "internalType": "uint256",
          "name": "currentPremium",
          "type": "uint256"
        },
        {
          "indexed": false,
          "internalType": "uint256",
          "name": "currentAsset",
          "type": "uint256"
        }
      ],
      "name": "PremiumEscrowed",
      "type": "event"
    },
    {
      "anonymous": false,
      "inputs": [
        {
          "indexed": false,
          "internalType": "address",
          "name": "messageSender",
          "type": "address"
        },
        {
          "indexed": false,
          "internalType": "uint256",
          "name": "amount",
          "type": "uint256"
        },
        {
          "indexed": false,
          "internalType": "address",
          "name": "transferFrom",
          "type": "address"
        },
        {
          "indexed": false,
          "internalType": "address",
          "name": "transferTo",
          "type": "address"
        },
        {
          "indexed": false,
          "internalType": "uint256",
          "name": "currentPremium",
          "type": "uint256"
        },
        {
          "indexed": false,
          "internalType": "uint256",
          "name": "currentAsset",
          "type": "uint256"
        }
      ],
      "name": "PremiumRedeemed",
      "type": "event"
    },
    {
      "anonymous": false,
      "inputs": [
        {
          "indexed": false,
          "internalType": "address",
          "name": "messageSender",
          "type": "address"
        },
        {
          "indexed": false,
          "internalType": "uint256",
          "name": "amount",
          "type": "uint256"
        },
        {
          "indexed": false,
          "internalType": "address",
          "name": "transferFrom",
          "type": "address"
        },
        {
          "indexed": false,
          "internalType": "address",
          "name": "transferTo",
          "type": "address"
        },
        {
          "indexed": false,
          "internalType": "uint256",
          "name": "currentPremium",
          "type": "uint256"
        },
        {
          "indexed": false,
          "internalType": "uint256",
          "name": "currentAsset",
          "type": "uint256"
        }
      ],
      "name": "PremiumRefunded",
      "type": "event"
    },
    {
      "anonymous": false,
      "inputs": [
        {
          "indexed": false,
          "internalType": "address payable",
          "name": "assetEscrower",
          "type": "address"
        },
        {
          "indexed": false,
          "internalType": "address payable",
          "name": "premiumEscrower",
          "type": "address"
        },
        {
          "indexed": false,
          "internalType": "uint256",
          "name": "expectedPremium",
          "type": "uint256"
        },
        {
          "indexed": false,
          "internalType": "uint256",
          "name": "expectedAsset",
          "type": "uint256"
        },
        {
          "indexed": false,
          "internalType": "uint256",
          "name": "startTime",
          "type": "uint256"
        },
        {
          "indexed": false,
          "internalType": "uint256",
          "name": "premiumDeadline",
          "type": "uint256"
        },
        {
          "indexed": false,
          "internalType": "uint256",
          "name": "assetDeadline",
          "type": "uint256"
        },
        {
          "indexed": false,
          "internalType": "uint256",
          "name": "assetTimeout",
          "type": "uint256"
        }
      ],
      "name": "SetUp",
      "type": "event"
    },
    {
      "inputs": [
        {
          "internalType": "bytes32",
          "name": "",
          "type": "bytes32"
        }
      ],
      "name": "assets",
      "outputs": [
        {
          "internalType": "uint256",
          "name": "expected",
          "type": "uint256"
        },
        {
          "internalType": "uint256",
          "name": "current",
          "type": "uint256"
        },
        {
          "internalType": "uint256",
          "name": "deadline",
          "type": "uint256"
        },
        {
          "internalType": "uint256",
          "name": "timeout",
          "type": "uint256"
        }
      ],
      "stateMutability": "view",
      "type": "function"
    },
    {
      "inputs": [
        {
          "internalType": "bytes32",
          "name": "hashLock",
          "type": "bytes32"
        }
      ],
      "name": "escrowAsset",
      "outputs": [],
      "stateMutability": "payable",
      "type": "function"
    },
    {
      "inputs": [
        {
          "internalType": "bytes32",
          "name": "hashLock",
          "type": "bytes32"
        }
      ],
      "name": "escrowPremium",
      "outputs": [],
      "stateMutability": "payable",
      "type": "function"
    },
    {
      "inputs": [
        {
          "internalType": "bytes32",
          "name": "",
          "type": "bytes32"
        }
      ],
      "name": "premiums",
      "outputs": [
        {
          "internalType": "uint256",
          "name": "expected",
          "type": "uint256"
        },
        {
          "internalType": "uint256",
          "name": "current",
          "type": "uint256"
        },
        {
          "internalType": "uint256",
          "name": "deadline",
          "type": "uint256"
        }
      ],
      "stateMutability": "view",
      "type": "function"
    },
    {
      "inputs": [
        {
          "internalType": "bytes32",
          "name": "preimage",
          "type": "bytes32"
        },
        {
          "internalType": "bytes32",
          "name": "hashLock",
          "type": "bytes32"
        }
      ],
      "name": "redeemAsset",
      "outputs": [],
      "stateMutability": "nonpayable",
      "type": "function"
    },
    {
      "inputs": [
        {
          "internalType": "bytes32",
          "name": "hashLock",
          "type": "bytes32"
        }
      ],
      "name": "redeemPremium",
      "outputs": [],
      "stateMutability": "nonpayable",
      "type": "function"
    },
    {
      "inputs": [
        {
          "internalType": "bytes32",
          "name": "hashLock",
          "type": "bytes32"
        }
      ],
      "name": "refundAsset",
      "outputs": [],
      "stateMutability": "nonpayable",
      "type": "function"
    },
    {
      "inputs": [
        {
          "internalType": "bytes32",
          "name": "hashLock",
          "type": "bytes32"
        }
      ],
      "name": "refundPremium",
      "outputs": [],
      "stateMutability": "nonpayable",
      "type": "function"
    },
    {
      "inputs": [
        {
          "internalType": "uint256",
          "name": "expectedAssetEscrow",
          "type": "uint256"
        },
        {
          "internalType": "uint256",
          "name": "expectedPremiumEscrow",
          "type": "uint256"
        },
        {
          "internalType": "address payable",
          "name": "assetEscrower",
          "type": "address"
        },
        {
          "internalType": "address payable",
          "name": "premiumEscrower",
          "type": "address"
        },
        {
          "internalType": "address",
          "name": "assetAddress",
          "type": "address"
        },
        {
          "internalType": "bytes32",
          "name": "hashLock",
          "type": "bytes32"
        },
        {
          "internalType": "uint256",
          "name": "startTime",
          "type": "uint256"
        },
        {
          "internalType": "bool",
          "name": "firstAssetEscrow",
          "type": "bool"
        },
        {
          "internalType": "uint256",
          "name": "delta",
          "type": "uint256"
        }
      ],
      "name": "setup",
      "outputs": [],
      "stateMutability": "payable",
      "type": "function"
    },
    {
      "inputs": [
        {
          "internalType": "bytes32",
          "name": "",
          "type": "bytes32"
        }
      ],
      "name": "swaps",
      "outputs": [
        {
          "internalType": "address payable",
          "name": "assetEscrower",
          "type": "address"
        },
        {
          "internalType": "address payable",
          "name": "premiumEscrower",
          "type": "address"
        },
        {
          "internalType": "bytes32",
          "name": "hashLock",
          "type": "bytes32"
        },
        {
          "internalType": "address",
          "name": "assetAddress",
          "type": "address"
        }
      ],
      "stateMutability": "view",
      "type": "function"
    }
  ],
  "bytecode": "0x608060405234801561001057600080fd5b50612f4b806100206000396000f3fe6080604052600436106100915760003560e01c8063b55587a911610059578063b55587a914610183578063d133adb1146101ac578063d72a0a53146101c8578063e8d8c29b146101f1578063eb84e7f21461020d57610091565b80635385c9141461009657806378a3113e146100bf5780638f1c087c146100fe5780639fda5b6614610127578063aeaf7cc714610167575b600080fd5b3480156100a257600080fd5b506100bd60048036038101906100b89190611dc2565b61024d565b005b3480156100cb57600080fd5b506100e660048036038101906100e19190611dc2565b610532565b6040516100f59392919061276f565b60405180910390f35b34801561010a57600080fd5b5061012560048036038101906101209190611dc2565b61055c565b005b34801561013357600080fd5b5061014e60048036038101906101499190611dc2565b610861565b60405161015e94939291906127a6565b60405180910390f35b610181600480360381019061017c9190611dc2565b610891565b005b34801561018f57600080fd5b506101aa60048036038101906101a59190611dc2565b610c15565b005b6101c660048036038101906101c19190611e50565b610ff2565b005b3480156101d457600080fd5b506101ef60048036038101906101ea9190611e14565b61144b565b005b61020b60048036038101906102069190611dc2565b611883565b005b34801561021957600080fd5b50610234600480360381019061022f9190611dc2565b611c76565b6040516102449493929190612265565b60405180910390f35b8060026000828152602001908152602001600020600001546002600083815260200190815260200160002060010154146102bc576040517f08c379a00000000000000000000000000000000000000000000000000000000081526004016102b39061252f565b60405180910390fd5b600160008281526020019081526020016000206000015460016000838152602001908152602001600020600101541461032a576040517f08c379a00000000000000000000000000000000000000000000000000000000081526004016103219061256f565b60405180910390fd5b60016000828152602001908152602001600020600201544211610382576040517f08c379a00000000000000000000000000000000000000000000000000000000081526004016103799061272f565b60405180910390fd5b600080600084815260200190815260200160002060030160009054906101000a900473ffffffffffffffffffffffffffffffffffffffff1690506000600160008581526020019081526020016000206001015490508173ffffffffffffffffffffffffffffffffffffffff1663a9059cbb33836040518363ffffffff1660e01b8152600401610412929190612388565b602060405180830381600087803b15801561042c57600080fd5b505af1158015610440573d6000803e3d6000fd5b505050506040513d601f19601f820116820180604052508101906104649190611d99565b6104a3576040517f08c379a000000000000000000000000000000000000000000000000000000000815260040161049a9061260f565b60405180910390fd5b600060016000868152602001908152602001600020600101819055507f35bf93d41681ae8339a4a8c79b8f9a70f8591536c61cc1f080baa9b210d4b30e33823033600260008a815260200190815260200160002060010154600160008b81526020019081526020016000206001015460405161052496959493929190612473565b60405180910390a150505050565b60026020528060005260406000206000915090508060000154908060010154908060020154905083565b8060016000828152602001908152602001600020600001546001600083815260200190815260200160002060010154106105cb576040517f08c379a00000000000000000000000000000000000000000000000000000000081526004016105c2906126ef565b60405180910390fd5b60016000828152602001908152602001600020600301544211610623576040517f08c379a000000000000000000000000000000000000000000000000000000000815260040161061a906125cf565b60405180910390fd5b6002600082815260200190815260200160002060000154600260008381526020019081526020016000206001015414610691576040517f08c379a00000000000000000000000000000000000000000000000000000000081526004016106889061252f565b60405180910390fd5b600080600084815260200190815260200160002060030160009054906101000a900473ffffffffffffffffffffffffffffffffffffffff1690506000600260008581526020019081526020016000206001015490508173ffffffffffffffffffffffffffffffffffffffff1663a9059cbb33836040518363ffffffff1660e01b8152600401610721929190612388565b602060405180830381600087803b15801561073b57600080fd5b505af115801561074f573d6000803e3d6000fd5b505050506040513d601f19601f820116820180604052508101906107739190611d99565b6107b2576040517f08c379a00000000000000000000000000000000000000000000000000000000081526004016107a99061260f565b60405180910390fd5b8060026000868152602001908152602001600020600101546107d491906128c2565b60026000868152602001908152602001600020600101819055507fe262b15c13829fba44f68e772d8a56b07bdbe837457c17ac646a0a895f6213a433823033600260008a815260200190815260200160002060010154600160008b81526020019081526020016000206001015460405161085396959493929190612473565b60405180910390a150505050565b60016020528060005260406000206000915090508060000154908060010154908060020154908060030154905084565b8060026000828152602001908152602001600020600201544211156108eb576040517f08c379a00000000000000000000000000000000000000000000000000000000081526004016108e29061258f565b60405180910390fd5b3373ffffffffffffffffffffffffffffffffffffffff1660008083815260200190815260200160002060010160009054906101000a900473ffffffffffffffffffffffffffffffffffffffff1673ffffffffffffffffffffffffffffffffffffffff161461098e576040517f08c379a00000000000000000000000000000000000000000000000000000000081526004016109859061250f565b60405180910390fd5b60026000828152602001908152602001600020600001546002600083815260200190815260200160002060010154106109fc576040517f08c379a00000000000000000000000000000000000000000000000000000000081526004016109f39061264f565b60405180910390fd5b600080600084815260200190815260200160002060030160009054906101000a900473ffffffffffffffffffffffffffffffffffffffff169050600060026000858152602001908152602001600020600101546002600086815260200190815260200160002060000154610a7091906128c2565b90508173ffffffffffffffffffffffffffffffffffffffff166323b872dd3330846040518463ffffffff1660e01b8152600401610aaf93929190612351565b602060405180830381600087803b158015610ac957600080fd5b505af1158015610add573d6000803e3d6000fd5b505050506040513d601f19601f82011682018060405250810190610b019190611d99565b610b40576040517f08c379a0000000000000000000000000000000000000000000000000000000008152600401610b379061260f565b60405180910390fd5b80600260008681526020019081526020016000206001016000828254610b669190612812565b925050819055507fb4e524d3a0691cb1ece34c51c744887e59f3fe2784648c09cb036109f69e23eb338260008088815260200190815260200160002060010160009054906101000a900473ffffffffffffffffffffffffffffffffffffffff1630600260008a815260200190815260200160002060010154600160008b815260200190815260200160002060010154604051610c07969594939291906123b1565b60405180910390a150505050565b803373ffffffffffffffffffffffffffffffffffffffff1660008083815260200190815260200160002060000160009054906101000a900473ffffffffffffffffffffffffffffffffffffffff1673ffffffffffffffffffffffffffffffffffffffff1614610cb9576040517f08c379a0000000000000000000000000000000000000000000000000000000008152600401610cb09061270f565b60405180910390fd5b6002600082815260200190815260200160002060000154600260008381526020019081526020016000206001015414610d27576040517f08c379a0000000000000000000000000000000000000000000000000000000008152600401610d1e906125ef565b60405180910390fd5b6000600160008381526020019081526020016000206000015411610d80576040517f08c379a0000000000000000000000000000000000000000000000000000000008152600401610d77906126cf565b60405180910390fd5b60026000828152602001908152602001600020600201544211610dd8576040517f08c379a0000000000000000000000000000000000000000000000000000000008152600401610dcf9061274f565b60405180910390fd5b600080600084815260200190815260200160002060030160009054906101000a900473ffffffffffffffffffffffffffffffffffffffff1690506000600260008581526020019081526020016000206001015490508173ffffffffffffffffffffffffffffffffffffffff1663a9059cbb60008087815260200190815260200160002060000160009054906101000a900473ffffffffffffffffffffffffffffffffffffffff16836040518363ffffffff1660e01b8152600401610e9d929190612328565b602060405180830381600087803b158015610eb757600080fd5b505af1158015610ecb573d6000803e3d6000fd5b505050506040513d601f19601f82011682018060405250810190610eef9190611d99565b610f2e576040517f08c379a0000000000000000000000000000000000000000000000000000000008152600401610f259061260f565b60405180910390fd5b600060026000868152602001908152602001600020600101819055507f66b1503c3ecf228b3c665c611abcd216a5cbdbcc890636e1294cec4ca84c8c2833823060008089815260200190815260200160002060000160009054906101000a900473ffffffffffffffffffffffffffffffffffffffff16600260008a815260200190815260200160002060010154600160008b815260200190815260200160002060010154604051610fe496959493929190612412565b60405180910390a150505050565b83600073ffffffffffffffffffffffffffffffffffffffff1660008083815260200190815260200160002060000160009054906101000a900473ffffffffffffffffffffffffffffffffffffffff1673ffffffffffffffffffffffffffffffffffffffff1614611097576040517f08c379a000000000000000000000000000000000000000000000000000000000815260040161108e906125af565b60405180910390fd5b60405180608001604052808973ffffffffffffffffffffffffffffffffffffffff1681526020018873ffffffffffffffffffffffffffffffffffffffff1681526020018681526020018773ffffffffffffffffffffffffffffffffffffffff1681525060008087815260200190815260200160002060008201518160000160006101000a81548173ffffffffffffffffffffffffffffffffffffffff021916908373ffffffffffffffffffffffffffffffffffffffff16021790555060208201518160010160006101000a81548173ffffffffffffffffffffffffffffffffffffffff021916908373ffffffffffffffffffffffffffffffffffffffff1602179055506040820151816002015560608201518160030160006101000a81548173ffffffffffffffffffffffffffffffffffffffff021916908373ffffffffffffffffffffffffffffffffffffffff16021790555090505060405180608001604052808b81526020016000815260200184611228578360046112189190612868565b866112239190612812565b611241565b8360036112359190612868565b866112409190612812565b5b815260200184611268578360056112589190612868565b866112639190612812565b611281565b8360066112759190612868565b866112809190612812565b5b815250600160008781526020019081526020016000206000820151816000015560208201518160010155604082015181600201556060820151816003015590505060405180606001604052808a815260200160008152602001846112fc578360016112ec9190612868565b866112f79190612812565b611315565b8360026113099190612868565b866113149190612812565b5b815250600260008781526020019081526020016000206000820151816000015560208201518160010155604082015181600201559050507fc79aeb2fe76f332a1d6d3f45f05258ca3b85a3ee38f40e55421212e72ea99e8c88888b8d8888611394578760016113849190612868565b8a61138f9190612812565b6113ad565b8760026113a19190612868565b8a6113ac9190612812565b5b896113cf578860046113bf9190612868565b8b6113ca9190612812565b6113e8565b8860036113dc9190612868565b8b6113e79190612812565b5b8a61140a578960056113fa9190612868565b8c6114059190612812565b611423565b8960066114179190612868565b8c6114229190612812565b5b6040516114379897969594939291906122aa565b60405180910390a150505050505050505050565b818160016000828152602001908152602001600020600001546001600083815260200190815260200160002060010154146114bb576040517f08c379a00000000000000000000000000000000000000000000000000000000081526004016114b29061262f565b60405180910390fd5b6001600082815260200190815260200160002060020154421115611514576040517f08c379a000000000000000000000000000000000000000000000000000000000815260040161150b9061258f565b60405180910390fd5b3373ffffffffffffffffffffffffffffffffffffffff1660008083815260200190815260200160002060010160009054906101000a900473ffffffffffffffffffffffffffffffffffffffff1673ffffffffffffffffffffffffffffffffffffffff16146115b7576040517f08c379a00000000000000000000000000000000000000000000000000000000081526004016115ae906126af565b60405180910390fd5b806002836040516020016115cb91906124d4565b6040516020818303038152906040526040516115e7919061224e565b602060405180830381855afa158015611604573d6000803e3d6000fd5b5050506040513d601f19601f820116820180604052508101906116279190611deb565b14611667576040517f08c379a000000000000000000000000000000000000000000000000000000000815260040161165e9061268f565b60405180910390fd5b600080600085815260200190815260200160002060030160009054906101000a900473ffffffffffffffffffffffffffffffffffffffff1690506000600160008681526020019081526020016000206001015490508173ffffffffffffffffffffffffffffffffffffffff1663a9059cbb60008088815260200190815260200160002060010160009054906101000a900473ffffffffffffffffffffffffffffffffffffffff16836040518363ffffffff1660e01b815260040161172c929190612328565b602060405180830381600087803b15801561174657600080fd5b505af115801561175a573d6000803e3d6000fd5b505050506040513d601f19601f8201168201806040525081019061177e9190611d99565b6117bd576040517f08c379a00000000000000000000000000000000000000000000000000000000081526004016117b49061260f565b60405180910390fd5b600060016000878152602001908152602001600020600101819055507f3484574bab0531880c22e3c11bd9b4827f810e6bbb68433d67ec59f1c3b336f63382306000808a815260200190815260200160002060010160009054906101000a900473ffffffffffffffffffffffffffffffffffffffff16600260008b815260200190815260200160002060010154600160008c81526020019081526020016000206001015460405161187396959493929190612412565b60405180910390a1505050505050565b8060016000828152602001908152602001600020600001546001600083815260200190815260200160002060010154106118f2576040517f08c379a00000000000000000000000000000000000000000000000000000000081526004016118e9906124ef565b60405180910390fd5b3373ffffffffffffffffffffffffffffffffffffffff1660008083815260200190815260200160002060000160009054906101000a900473ffffffffffffffffffffffffffffffffffffffff1673ffffffffffffffffffffffffffffffffffffffff1614611995576040517f08c379a000000000000000000000000000000000000000000000000000000000815260040161198c9061266f565b60405180910390fd5b60016000828152602001908152602001600020600201544211156119ee576040517f08c379a00000000000000000000000000000000000000000000000000000000081526004016119e59061258f565b60405180910390fd5b600260008281526020019081526020016000206000015460026000838152602001908152602001600020600101541015611a5d576040517f08c379a0000000000000000000000000000000000000000000000000000000008152600401611a549061254f565b60405180910390fd5b600080600084815260200190815260200160002060030160009054906101000a900473ffffffffffffffffffffffffffffffffffffffff169050600060016000858152602001908152602001600020600101546001600086815260200190815260200160002060000154611ad191906128c2565b90508173ffffffffffffffffffffffffffffffffffffffff166323b872dd3330846040518463ffffffff1660e01b8152600401611b1093929190612351565b602060405180830381600087803b158015611b2a57600080fd5b505af1158015611b3e573d6000803e3d6000fd5b505050506040513d601f19601f82011682018060405250810190611b629190611d99565b611ba1576040517f08c379a0000000000000000000000000000000000000000000000000000000008152600401611b989061260f565b60405180910390fd5b80600160008681526020019081526020016000206001016000828254611bc79190612812565b925050819055507f1f0d9d92d563a9e40c820d68cf6bb63bd117be35c9d16d896f70d7a9537d2230338260008088815260200190815260200160002060000160009054906101000a900473ffffffffffffffffffffffffffffffffffffffff1630600260008a815260200190815260200160002060010154600160008b815260200190815260200160002060010154604051611c68969594939291906123b1565b60405180910390a150505050565b60006020528060005260406000206000915090508060000160009054906101000a900473ffffffffffffffffffffffffffffffffffffffff16908060010160009054906101000a900473ffffffffffffffffffffffffffffffffffffffff16908060020154908060030160009054906101000a900473ffffffffffffffffffffffffffffffffffffffff16905084565b600081359050611d1581612ea2565b92915050565b600081359050611d2a81612eb9565b92915050565b600081359050611d3f81612ed0565b92915050565b600081519050611d5481612ed0565b92915050565b600081359050611d6981612ee7565b92915050565b600081519050611d7e81612ee7565b92915050565b600081359050611d9381612efe565b92915050565b600060208284031215611dab57600080fd5b6000611db984828501611d45565b91505092915050565b600060208284031215611dd457600080fd5b6000611de284828501611d5a565b91505092915050565b600060208284031215611dfd57600080fd5b6000611e0b84828501611d6f565b91505092915050565b60008060408385031215611e2757600080fd5b6000611e3585828601611d5a565b9250506020611e4685828601611d5a565b9150509250929050565b60008060008060008060008060006101208a8c031215611e6f57600080fd5b6000611e7d8c828d01611d84565b9950506020611e8e8c828d01611d84565b9850506040611e9f8c828d01611d1b565b9750506060611eb08c828d01611d1b565b9650506080611ec18c828d01611d06565b95505060a0611ed28c828d01611d5a565b94505060c0611ee38c828d01611d84565b93505060e0611ef48c828d01611d30565b925050610100611f068c828d01611d84565b9150509295985092959850929598565b611f1f8161295a565b82525050565b611f2e81612908565b82525050565b611f3d816128f6565b82525050565b611f4c81612926565b82525050565b6000611f5d826127eb565b611f6781856127f6565b9350611f77818560208601612990565b80840191505092915050565b6000611f90602083612801565b9150611f9b826129f2565b602082019050919050565b6000611fb3602883612801565b9150611fbe82612a1b565b604082019050919050565b6000611fd6602283612801565b9150611fe182612a6a565b604082019050919050565b6000611ff9602983612801565b915061200482612ab9565b604082019050919050565b600061201c602083612801565b915061202782612b08565b602082019050919050565b600061203f601b83612801565b915061204a82612b31565b602082019050919050565b6000612062601c83612801565b915061206d82612b5a565b602082019050919050565b6000612085601e83612801565b915061209082612b83565b602082019050919050565b60006120a8602083612801565b91506120b382612bac565b602082019050919050565b60006120cb601183612801565b91506120d682612bd5565b602082019050919050565b60006120ee601c83612801565b91506120f982612bfe565b602082019050919050565b6000612111602d83612801565b915061211c82612c27565b604082019050919050565b6000612134602683612801565b915061213f82612c76565b604082019050919050565b6000612157601c83612801565b915061216282612cc5565b602082019050919050565b600061217a602883612801565b915061218582612cee565b604082019050919050565b600061219d602e83612801565b91506121a882612d3d565b604082019050919050565b60006121c0602583612801565b91506121cb82612d8c565b604082019050919050565b60006121e3602783612801565b91506121ee82612ddb565b604082019050919050565b6000612206601f83612801565b915061221182612e2a565b602082019050919050565b6000612229602383612801565b915061223482612e53565b604082019050919050565b61224881612950565b82525050565b600061225a8284611f52565b915081905092915050565b600060808201905061227a6000830187611f25565b6122876020830186611f25565b6122946040830185611f43565b6122a16060830184611f34565b95945050505050565b6000610100820190506122c0600083018b611f25565b6122cd602083018a611f25565b6122da604083018961223f565b6122e7606083018861223f565b6122f4608083018761223f565b61230160a083018661223f565b61230e60c083018561223f565b61231b60e083018461223f565b9998505050505050505050565b600060408201905061233d6000830185611f16565b61234a602083018461223f565b9392505050565b60006060820190506123666000830186611f34565b6123736020830185611f34565b612380604083018461223f565b949350505050565b600060408201905061239d6000830185611f34565b6123aa602083018461223f565b9392505050565b600060c0820190506123c66000830189611f34565b6123d3602083018861223f565b6123e06040830187611f16565b6123ed6060830186611f34565b6123fa608083018561223f565b61240760a083018461223f565b979650505050505050565b600060c0820190506124276000830189611f34565b612434602083018861223f565b6124416040830187611f34565b61244e6060830186611f16565b61245b608083018561223f565b61246860a083018461223f565b979650505050505050565b600060c0820190506124886000830189611f34565b612495602083018861223f565b6124a26040830187611f34565b6124af6060830186611f34565b6124bc608083018561223f565b6124c960a083018461223f565b979650505050505050565b60006020820190506124e96000830184611f43565b92915050565b6000602082019050818103600083015261250881611f83565b9050919050565b6000602082019050818103600083015261252881611fa6565b9050919050565b6000602082019050818103600083015261254881611fc9565b9050919050565b6000602082019050818103600083015261256881611fec565b9050919050565b600060208201905081810360008301526125888161200f565b9050919050565b600060208201905081810360008301526125a881612032565b9050919050565b600060208201905081810360008301526125c881612055565b9050919050565b600060208201905081810360008301526125e881612078565b9050919050565b600060208201905081810360008301526126088161209b565b9050919050565b60006020820190508181036000830152612628816120be565b9050919050565b60006020820190508181036000830152612648816120e1565b9050919050565b6000602082019050818103600083015261266881612104565b9050919050565b6000602082019050818103600083015261268881612127565b9050919050565b600060208201905081810360008301526126a88161214a565b9050919050565b600060208201905081810360008301526126c88161216d565b9050919050565b600060208201905081810360008301526126e881612190565b9050919050565b60006020820190508181036000830152612708816121b3565b9050919050565b60006020820190508181036000830152612728816121d6565b9050919050565b60006020820190508181036000830152612748816121f9565b9050919050565b600060208201905081810360008301526127688161221c565b9050919050565b6000606082019050612784600083018661223f565b612791602083018561223f565b61279e604083018461223f565b949350505050565b60006080820190506127bb600083018761223f565b6127c8602083018661223f565b6127d5604083018561223f565b6127e2606083018461223f565b95945050505050565b600081519050919050565b600081905092915050565b600082825260208201905092915050565b600061281d82612950565b915061282883612950565b9250827fffffffffffffffffffffffffffffffffffffffffffffffffffffffffffffffff0382111561285d5761285c6129c3565b5b828201905092915050565b600061287382612950565b915061287e83612950565b9250817fffffffffffffffffffffffffffffffffffffffffffffffffffffffffffffffff04831182151516156128b7576128b66129c3565b5b828202905092915050565b60006128cd82612950565b91506128d883612950565b9250828210156128eb576128ea6129c3565b5b828203905092915050565b600061290182612930565b9050919050565b600061291382612930565b9050919050565b60008115159050919050565b6000819050919050565b600073ffffffffffffffffffffffffffffffffffffffff82169050919050565b6000819050919050565b60006129658261296c565b9050919050565b60006129778261297e565b9050919050565b600061298982612930565b9050919050565b60005b838110156129ae578082015181840152602081019050612993565b838111156129bd576000848401525b50505050565b7f4e487b7100000000000000000000000000000000000000000000000000000000600052601160045260246000fd5b7f6572726f722c2061737365747320616c726561647920636f6d706c6574656421600082015250565b7f6572726f722c20796f7520617265206e6f7420746865207072656d69756d206560008201527f7363726f77657221000000000000000000000000000000000000000000000000602082015250565b7f6572726f722c20746865207072656d69756d206973206e6f7420636f7272656360008201527f7421000000000000000000000000000000000000000000000000000000000000602082015250565b7f6572726f722c20796f7520686176656e277420636f6d706c657465642074686560008201527f207072656d69756d210000000000000000000000000000000000000000000000602082015250565b7f6572726f722c20746865206173736574206973206e6f7420636f727265637421600082015250565b7f6572726f722c20646561646c696e652068617320706173736564210000000000600082015250565b7f6572726f722c207377617020616c726561647920657869737465642100000000600082015250565b7f6572726f722c2074696d656f757420686173206e6f7420706173736564210000600082015250565b7f6572726f722c207072656d69756d206973206e6f7420636f6d706c6574656421600082015250565b7f6661696c20746f207472616e7366657221000000000000000000000000000000600082015250565b7f6572726f722c20617373657473206e6f7420636f6d706c657465642100000000600082015250565b7f6572726f722c2063757272656e74207072656d69756d2068617320616c72656160008201527f647920636f6d706c657465642100000000000000000000000000000000000000602082015250565b7f6572726f722c20796f7520617265206e6f74207468652061737365742065736360008201527f726f776572210000000000000000000000000000000000000000000000000000602082015250565b7f6572726f722c20707265696d616765206e6f74206d6174636865642100000000600082015250565b7f6572726f722c20796f7520617265206e6f7420746865207072656d69756d206560008201527f7363727077657221000000000000000000000000000000000000000000000000602082015250565b7f6572726f722c2074686520617373657420616d6f756e742073686f756c64206760008201527f726561746572207468616e203021000000000000000000000000000000000000602082015250565b7f6572726f722c20617373657274732061726520616c726561647920636f6d706c60008201527f6574656421000000000000000000000000000000000000000000000000000000602082015250565b7f6572726f722c20796f757220617265206e6f742074686520617373657420657360008201527f63726f7765722100000000000000000000000000000000000000000000000000602082015250565b7f6572726f722c20646561646c696e6520686173206e6f74207061737365642100600082015250565b7f6572726f722c2074686520646561646c696e6520686173206e6f74207061737360008201527f6564210000000000000000000000000000000000000000000000000000000000602082015250565b612eab816128f6565b8114612eb657600080fd5b50565b612ec281612908565b8114612ecd57600080fd5b50565b612ed98161291a565b8114612ee457600080fd5b50565b612ef081612926565b8114612efb57600080fd5b50565b612f0781612950565b8114612f1257600080fd5b5056fea264697066735822122048b6b534ab5f0906914393a742779888b75357fe6f0c8ec4e5e6bf615ad7d30e64736f6c63430008040033",
  "linkReferences": {},
  "deployedLinkReferences": {}
}